:020000040000FA
:10000000E87200201D010000000000000000000058
:1000100000000000000000000000000000000000E0
:1000200000000000000000000000000000000000D0
:100030000000000000000000870100000D0A000021
:1000400000000000000000000000000000000000B0
:1000500000000000000000000000000000000000A0
:100060000000000000000000000000000000000090
:100070000000000000000000000000000000000080
:1000800000F002F800F03AF80AA090E8000C824470
:100090008344AAF10107DA4501D100F02FF8AFF24D
:1000A000090EBAE80F0013F0010F18BFFB1A43F056
:1000B000010318471412000034120000103A24BF44
:1000C00078C878C1FAD8520724BF30C830C144BFBD
:1000D00004680C60704700000023002400250026FF
:1000E000103A28BF78C1FBD8520728BF30C148BF9B
:1000F0000B6070471FB51FBD10B510BD00F07CF838
:100100001146FFF7F7FF00F0DDFF00F09AF803B4A7
:10011000FFF7F2FF03BC00F09DF800000448004721
:10012000FEE7FEE703480449044A054B7047000018
:1001300081000000E8520020E8720020E862002000
:10014000E8620020EFF3108072B6704780F31088E9
:1001500070471D484FF0FF010170002080F30988AF
:100160001A48012101701A484FF08051016062B6AF
:10017000FEE717484FF080510160704714484FF078
:1001800080510160704772B6EFF3098028B12038C2
:1001900080E8F00F0F490968086000B50E488047F5
:1001A0005DF804EB0D480E490A78027009480D49C4
:1001B0000A680260106890E8F00F203080F3098828
:1001C0004EF0040E62B6704722ED00E0224000209F
:1001D00004ED00E0284000209D0800001B400020A6
:1001E0001C400020304000207047704770470000DE
:1001F00000487047845200207546FFF7F9FFAE466D
:1002000005006946534620F00700854618B020B522
:10021000FFF788FFBDE820404FF000064FF00007D1
:100220004FF000084FF0000B21F00701AC46ACE89E
:10023000C009ACE8C009ACE8C009ACE8C0098D460B
:10024000704710B50446AFF300802046BDE810406B
:10025000FFF75DBF01491820ABBEFEE72600020094
:10026000704700000048704740787D0117481848E3
:100270001848194819481A481A481B481B481C486E
:100280001C481D481D481E481E481F481F4820483E
:10029000204821482148224822482348234824480E
:1002A00024482548254826482648274827482848DE
:1002B0002848294829482A482A482B482B482C48AE
:1002C0002C482D482D4800BF7047000068120000E0
:1002D0006C12000070120000721200007412000014
:1002E00076120000781200007A1200007C120000E2
:1002F0007E120000801200008212000084120000B2
:1003000086120000881200008A1200008C12000081
:100310008E12000090120000921200009412000051
:1003200096120000981200009A1200009C12000021
:100330009E120000A0120000A2120000A4120000F1
:10034000A6120000A8120000AA120000AC120000C1
:10035000AE120000B0120000B2120000B412000091
:10036000B6120000B8120000BA120000BC12000061
:10037000BE120000C0120000C2120000C412000031
:1003800010B500F013F800F0B9FB00F0E1FB00F04D
:1003900003FC00F08BFB00F063FB00F031FC00F08D
:1003A00057FC00F004F8FFF761FF10BD704770477D
:1003B00010B500241A480078012830D1FFF7C2FE9A
:1003C000044618480078002804DD16480078401ECE
:1003D0001449087013480078F0B913480078D8B968
:1003E00000F0A2FC1148007811490978884213D026
:1003F00010480E49097850F821000F490860084656
:100400000068806B401C096888630C480068401CC9
:100410000A490860FFF7B2FE2046FFF797FE10BDBD
:1004200022400020194000201A4000201C400020DB
:100430001B4000201C4A00203040002000400020CB
:1004400010B50B48007890B900F06EFC09480078B0
:100450000949087009480749097850F821000849F6
:1004600008600846006807490860FFF772FE10BD83
:10047000224000201C4000201B4000201C4A00207D
:10048000304000202840002010B50024022000F059
:1004900007FAFFF757FE044600200B490860204684
:1004A000FFF754FE642000F0FBF9FFF74BFE044613
:1004B0000548006805490860012005490870204684
:1004C000FFF744FE10BD0000244000201040002033
:1004D00018400020704700002DE9FE4F06460F46E9
:1004E00090461C464FF00009FFF72CFE814620483D
:1004F0000078002805DD4846FFF728FE3C20BDE8CF
:10050000FE8F1C4850F8240060BB0120194941F8B7
:1005100024004846FFF71AFE00234246394630467B
:1005200000F01AF98246002000900190034602462E
:1005300051460290204600F025FC054635B90E488C
:10054000007801280CD100F0B5FB09E0FFF7FAFDB7
:1005500081460020074941F824004846FFF7F6FD90
:100560002846CCE74846FFF7F1FD2820C7E7000002
:10057000194000201C4A0020224000202DE9F04FA5
:1005800085B081468A4693461C46DDE90F78129D68
:1005900000200390FFF7D6FD039023480078002841
:1005A00006DD0398FFF7D2FD3C2005B0BDE8F08FD3
:1005B0001E4850F8240088BB01201C4941F8240043
:1005C0000398FFF7C3FD2A464146384600F0DEFC9B
:1005D0002B465A465146484600F0BEF80490119802
:1005E000CDE9008002953A4620460E9B049900F022
:1005F000C9FB064636B90E48007801280CD100F038
:1006000059FB09E0FFF79EFD03900020074941F8E0
:1006100024000398FFF79AFD3046C6E7FFE70398EA
:10062000FFF794FD2820C0E7194000201C4A002055
:1006300022400020704770472DE9F0470646884663
:1006400014464FF000091D480078002803DD1220F1
:100650002070BDE8F087FFF775FD8146FF2E03D1BE
:100660001748006890F83260164850F826502DB9A7
:100670004846FFF76BFD43202070EAE7012D05D1C6
:100680004846FFF763FD43202070E2E7404600F054
:100690006FFB07460F2F05DD4846FFF757FD41204A
:1006A0002070D6E7414605F14C0000F053FB484668
:1006B000FFF74CFD0020207000BFCAE71940002062
:1006C000284000201C4A0020704700002DE9F04718
:1006D00007460D464FF0000A002028606860FFF7CB
:1006E00031FD8246FF2F03D11948006890F832701F
:1006F000184850F827402CB95046FFF727FD4320F3
:10070000BDE8F087012C04D15046FFF71FFD4320C0
:10071000F6E7207C00F0010020B95046FFF716FDF7
:100720004520EDE70026D4F80C90D4F80880504618
:10073000FFF70CFD00E0761C58F8041B0029FAD0E6
:10074000B0002860A9EB0600800068600020D7E7B1
:10075000284000201C4A002070B5044610464FF087
:1007600080750560051F28462C606FF00106051F87
:1007700028462E604FF01236051F28462E604FF097
:100780000336051F28462E604FF00236051F284607
:100790002E607610051F28462E60051F284629600A
:1007A0004FF01136051F28462E604FF01036051FFA
:1007B00028462E604FF00936051F28462E604FF060
:1007C0000836051F28462E604FF00736051F2846BD
:1007D0002E604FF00636051F28462E604FF0053676
:1007E000051F28462E604FF00436051F28462E6050
:1007F00070BD00002DE9F04105464FF00008FFF7FD
:10080000A1FC8046FF2D05D12048006890F83250A9
:10081000012608E01D48006890F83200A84201D186
:10082000012600E000261A4850F825402CB9404621
:10083000FFF78CFC4820BDE8F081012C04D1404634
:10084000FFF784FC4320F6E794F834701148C05D4C
:1008500094F8351088430F49C8550846C05D30B933
:1008600094F836100C48007888430B49087094F8C7
:10087000300040F0080084F830004046FFF766FC86
:10088000012E01D100F016FA0020D4E72840002004
:100890001C4A00201E4000201D4000207047000020
:1008A00070B50546002616480078002800DD70BDAA
:1008B000002D23DDFFF746FC06461248006890F83D
:1008C00034401148005D0F49096891F8351088439C
:1008D0000D4908550846005D40B90A48006890F87F
:1008E00036100A48007888430849087005480068AF
:1008F000C5853046FFF72AFC00F0DCF900BFD6E7DB
:1009000019400020284000201E4000201D400020EB
:1009100070B5002600F072F8FFF714FC0646314867
:100920000068401C2F4908603046FFF70FFC2E4836
:100930000078012853D12D48007820B1012804D037
:10094000022809D103E001250BE0002509E001257B
:1009500001202649087004E0012500202349087081
:1009600000BF00BF05B970BD2148046833E0FFF740
:10097000E9FB0646E08D50B3E08D401E80B2E08575
:1009800028BB94F8300000F0370040B114F8300F65
:1009900020F03700207001206070303C02E0002021
:1009A00084F8310094F8300000F0080078B934344D
:1009B000A0781049097808430E49087020780E493C
:1009C000085C6178084314F834190B4A5054646980
:1009D0003046FFF7BBFB94F832001F28C7D100BF99
:1009E000C1E700003C4000202240002038400020A9
:1009F000344000201D4000201E400020704700B5FC
:100A0000FFF730FC0146084600BD000010B5FFF7B7
:100A100099FB044606480078401C054908702046AA
:100A2000FFF794FBFFF774FFFFF7C2FC10BD000057
:100A30001940002010B5FFF7E2FF4FF47A71B0FBC8
:100A4000F1F4601E4FF0E02148610846006940F073
:100A5000050008610846006940F00200086110BD09
:100A600070B58C210F4800F01BF90E4C04F11C06E8
:100A700000250AE00020207066603F20A07200215F
:100A8000E1721C341C36681C85B2042DF2DB002098
:100A9000207060603F20A0720021E172014802498D
:100AA000086070BD904500200840002030B54FF42C
:100AB000A071104800F0F4F80E4B03F1200500245B
:100AC0000AE0002018705D603F20D873002119747F
:100AD00020332035601C84B2092CF2DB0020187012
:100AE00058603F20D87300211974024802490860F9
:100AF00030BD0000504400200440002000200A497E
:100B000008600A4908700A4908700A4908700A49C9
:100B100008700A4908600A4908600A4908600A49D9
:100B200008600A49087070473C40002019400020C6
:100B30001A400020234000202240002000400020D6
:100B400024400020144000201040002018400020C5
:100B500000220B4B1A700B49002004E0002201F820
:100B6000012B421CD0B20428F8DB0022064B1A707D
:100B7000064B1A70064B1A60064B1A60704700004D
:100B80001D4000201E4000201B4000201C40002073
:100B9000304000202840002030B54FF4FD6114485B
:100BA00000F07EF88021134800F07AF8104B03F132
:100BB0005C0500240AE05D613F2083F84C000021C1
:100BC0004D20C1545C335C35601CC4B2152CF2D38B
:100BD000002058613F2083F84C0000214D20C15473
:100BE00000200549086002480449086030BD000043
:100BF0009C4A00201C4A0020344000202C40002049
:100C000000B587B00320002180220A4BCDE90132D4
:100C1000CDE903104FF6FF701F23074A00900748E5
:100C2000FFF7ACFC06AA06A11F20FFF705FD07B0E1
:100C300000BD00001C480020184A0020A50E00003E
:100C400075432F4F532D49492049646C65000000BE
:100C500000B587B00320002180220A4BCDE9013284
:100C6000CDE903104FF6FE701E23074A0090074897
:100C7000FFF784FC06AA06A11E20FFF7DDFC07B0E3
:100C800000BD00001C46002018480020C90E0000CE
:100C900075432F4F532D4949205374617400000050
:100CA00004E0002200F8012B4A1E91B20029F8DC72
:100CB0007047000010B50024FFF744FA04461348BB
:100CC0000078F0B912480078D8B900F02DF8114832
:100CD000007811490978884213D010480D490978E5
:100CE00050F821000E49086008460068806B401CDF
:100CF000096888630B480068401C0A490860FFF7D0
:100D000038FA2046FFF722FA10BD000019400020F3
:100D10001A4000201C4000201B4000201C4A0020DC
:100D200030400020004000200649074A1278885CC5
:100D30000649095C034A515C01EBC001044A117089
:100D400070470000681100001D4000201E40002078
:100D50001C4000200246002005E011F8013B02F88B
:100D6000013B431CD8B20B78002BF6D113707047AF
:100D70000146002002E0491C421CD0B20A78002A39
:100D8000F9D170472DE9F84F05460E4617469846AB
:100D9000DDE90BABDDF8289000200090FFF7D2F9D9
:100DA00000903A480468002C6BD0183454F8040CB6
:100DB000364908600098FFF7C9F944F8186CA57621
:100DC000002020766076E08244F814AC44F80C9C55
:100DD00044F8107C24F808BC24F8068CE077E8106E
:100DE000207705F00700E076217F01208840A0777A
:100DF000E17E01208840607700206060A060206173
:100E0000E0602062A0626062E06220633F2084F8BC
:100E10003400183C00214D2001552046FFF75AFBB5
:100E20002046FFF707FCFFF78DF90090184840F8BF
:100E300025401848006860610020A06115480068DE
:100E400010B1144800688461124804603434A078FA
:100E50001149097808431049087020780F49085C47
:100E60006178084314F834190C4A50540C4800783F
:100E7000401C0B4908700098FFF768F90020BDE896
:100E8000F88F0098FFF762F94220F8E72C40002025
:100E90001C4A0020344000201D4000201E4000203D
:100EA00023400020002400BFFFF74CF9044605480A
:100EB0000068401C034908602046FFF747F9FFF728
:100EC000BAFBF1E724400020002402E0C820FFF72D
:100ED000E7FC1A4800780028F8D019480068642117
:100EE000B0FBF1F0164908600846006828B90020F8
:100EF00014490870FF20FFF77DFC00BFFFF722F9BF
:100F00000446114800681149086000200E49086035
:100F10002046FFF71BF90D48006809490968B0FB36
:100F2000F1F0C0F1640007490870FFF7CDFB00F055
:100F30000FF86420FFF7B4FCE0E700001840002041
:100F4000104000200C4000202440002014400020CD
:100F50007CB5002514E069462846FFF7B7FB064636
:100F600066B9094850F8254044B1012C06D0D4E9AF
:100F7000020100EB810060640198A064681CC5B2A6
:100F80001F2DE8DD7CBD00001C4A002002F001039B
:100F900043B102F002032BB102E0491E002308C056
:100FA0000029FAD17047000000BF0649496801F0E6
:100FB00002010229F9D103490968C8B20D2800D1FC
:100FC0000A2070470050004000BF0449496801F002
:100FD00001010029F9D10149086070470050004023
:100FE00010B50246FF20146804EA01030BB9002083
:100FF00000E0012010BDFF2901D102600AE0012AB2
:1010000002D103680B43036022B9CB43D9B2036812
:101010000B4003607047000029E0002240210806D1
:10102000FFF7E9FF4FF4FA70FFF73AFC0122402185
:101030000806FFF7E0FF4FF4FA70FFF731FC0121DB
:101040000B48FFF7CDFF02210948FFF7C9FF042134
:101050000748FFF7C5FF08210548FFF7C1FF20211A
:101060000348FFF7BDFF80210148FFF7B9FFD4E730
:101070005000004011E000BFFFF796FF6128FBD150
:101080004FF4FA70FFF70CFC6220FFF79DFF4FF45E
:10109000FA70FFF705FC00BFFEE7ECE711E000BFC8
:1010A000FFF782FF6128FBD14FF4FA70FFF7F8FBDE
:1010B0006220FFF789FF4FF4FA70FFF7F1FB00BFE2
:1010C000FEE7ECE710B50022FF210848FFF793FF89
:1010D00000F042F8FFF754F90A23054A00210548B9
:1010E000FFF7FAF9FFF7ACF9002010BD040000404B
:1010F0003C410020F910000070B505460024FFF7C0
:1011000099FCFFF7C1F9FFF71DF8044606230C4AC6
:1011100000210C48FFF7E0F905230B4A00210B489A
:10112000FFF7DAF907230A4A00210A48FFF7D4F942
:101130000A20FFF75FFB2046FFF708F870BD0000AC
:101140003C420020191000003C43002075100000B4
:101150003C4400209D10000040F62C204FF0402120
:101160000861032088607047000001000200010050
:101170000300010002000100040001000200010060
:10118000030001000200010005000100020001004F
:101190000300010002000100040001000200010040
:1011A000030001000200010006000100020001002E
:1011B0000300010002000100040001000200010020
:1011C000030001000200010005000100020001000F
:1011D0000300010002000100040001000200010000
:1011E00003000100020001000700010002000100ED
:1011F00003000100020001000400010002000100E0
:1012000003000100020001000500010002000100CE
:1012100003000100020001000400010002000100BF
:1012200003000100020001000600010002000100AD
:10123000030001000200010004000100020001009F
:10124000030001000200010005000100020001008E
:10125000030001000200010004000100020001007F
:101260000300010002000100010000007856341262
:101270000A00100001002000400101001C001400C1
:101280000200050010001F00010000000500100012
:101290000000000000000400000004000000040042
:1012A000010004000100010001008000010016009F
:1012B0001000010080000100010020005C00E80334
:1012C00001001E016E0E0000E81200000040002028
:1012D00040000000BC000000281300004040002037
:1012E000A8320000D800000000000000000000004C
:1012F00000000000000000000000000000000000EE
:1013000000000000000000000000000000000000DD
:1013100000000000000000000000000000000000CD
:081320000000000000000000C5
:040000050000011DD9
:00000001FF
